{
	"contracts/1_Storage.sol": {
		"Storage": {
			"abi": [
				{
					"inputs": [
						{
							"internalType": "uint8",
							"name": "_num",
							"type": "uint8"
						}
					],
					"name": "getName",
					"outputs": [
						{
							"internalType": "string",
							"name": "",
							"type": "string"
						}
					],
					"stateMutability": "view",
					"type": "function"
				},
				{
					"inputs": [
						{
							"internalType": "uint8",
							"name": "",
							"type": "uint8"
						}
					],
					"name": "names",
					"outputs": [
						{
							"internalType": "string",
							"name": "",
							"type": "string"
						}
					],
					"stateMutability": "view",
					"type": "function"
				},
				{
					"inputs": [
						{
							"internalType": "string",
							"name": "_name",
							"type": "string"
						},
						{
							"internalType": "uint8",
							"name": "_num",
							"type": "uint8"
						}
					],
					"name": "storeName",
					"outputs": [],
					"stateMutability": "nonpayable",
					"type": "function"
				}
			],
			"devdoc": {
				"custom:dev-run-script": "./scripts/deploy_with_ethers.ts",
				"details": "Store & retrieve value in a variable",
				"kind": "dev",
				"methods": {},
				"title": "Storage",
				"version": 1
			},
			"evm": {
				"assembly": "    /* \"contracts/1_Storage.sol\":199:471  contract Storage {... */\n  mstore(0x40, 0x80)\n  callvalue\n  dup1\n  iszero\n  tag_1\n  jumpi\n  0x00\n  dup1\n  revert\ntag_1:\n  pop\n  dataSize(sub_0)\n  dup1\n  dataOffset(sub_0)\n  0x00\n  codecopy\n  0x00\n  return\nstop\n\nsub_0: assembly {\n        /* \"contracts/1_Storage.sol\":199:471  contract Storage {... */\n      mstore(0x40, 0x80)\n      callvalue\n      dup1\n      iszero\n      tag_1\n      jumpi\n      0x00\n      dup1\n      revert\n    tag_1:\n      pop\n      jumpi(tag_2, lt(calldatasize, 0x04))\n      shr(0xe0, calldataload(0x00))\n      dup1\n      0x618b220f\n      eq\n      tag_3\n      jumpi\n      dup1\n      0x7257a493\n      eq\n      tag_4\n      jumpi\n      dup1\n      0xcab48e46\n      eq\n      tag_5\n      jumpi\n    tag_2:\n      0x00\n      dup1\n      revert\n        /* \"contracts/1_Storage.sol\":368:469  function getName(uint8 _num) external view returns(string memory) {... */\n    tag_3:\n      tag_6\n      0x04\n      dup1\n      calldatasize\n      sub\n      dup2\n      add\n      swap1\n      tag_7\n      swap2\n      swap1\n      tag_8\n      jump\t// in\n    tag_7:\n      tag_9\n      jump\t// in\n    tag_6:\n      mload(0x40)\n      tag_10\n      swap2\n      swap1\n      tag_11\n      jump\t// in\n    tag_10:\n      mload(0x40)\n      dup1\n      swap2\n      sub\n      swap1\n      return\n        /* \"contracts/1_Storage.sol\":222:260  mapping (uint8 => string) public names */\n    tag_4:\n      tag_12\n      0x04\n      dup1\n      calldatasize\n      sub\n      dup2\n      add\n      swap1\n      tag_13\n      swap2\n      swap1\n      tag_8\n      jump\t// in\n    tag_13:\n      tag_14\n      jump\t// in\n    tag_12:\n      mload(0x40)\n      tag_15\n      swap2\n      swap1\n      tag_11\n      jump\t// in\n    tag_15:\n      mload(0x40)\n      dup1\n      swap2\n      sub\n      swap1\n      return\n        /* \"contracts/1_Storage.sol\":267:362  function storeName(string memory _name, uint8 _num) public {... */\n    tag_5:\n      tag_16\n      0x04\n      dup1\n      calldatasize\n      sub\n      dup2\n      add\n      swap1\n      tag_17\n      swap2\n      swap1\n      tag_18\n      jump\t// in\n    tag_17:\n      tag_19\n      jump\t// in\n    tag_16:\n      stop\n        /* \"contracts/1_Storage.sol\":368:469  function getName(uint8 _num) external view returns(string memory) {... */\n    tag_9:\n        /* \"contracts/1_Storage.sol\":419:432  string memory */\n      0x60\n        /* \"contracts/1_Storage.sol\":451:456  names */\n      0x00\n        /* \"contracts/1_Storage.sol\":451:462  names[_num] */\n      dup1\n        /* \"contracts/1_Storage.sol\":457:461  _num */\n      dup4\n        /* \"contracts/1_Storage.sol\":451:462  names[_num] */\n      0xff\n      and\n      0xff\n      and\n      dup2\n      mstore\n      0x20\n      add\n      swap1\n      dup2\n      mstore\n      0x20\n      add\n      0x00\n      keccak256\n        /* \"contracts/1_Storage.sol\":444:462  return names[_num] */\n      dup1\n      sload\n      tag_21\n      swap1\n      tag_22\n      jump\t// in\n    tag_21:\n      dup1\n      0x1f\n      add\n      0x20\n      dup1\n      swap2\n      div\n      mul\n      0x20\n      add\n      mload(0x40)\n      swap1\n      dup2\n      add\n      0x40\n      mstore\n      dup1\n      swap3\n      swap2\n      swap1\n      dup2\n      dup2\n      mstore\n      0x20\n      add\n      dup3\n      dup1\n      sload\n      tag_23\n      swap1\n      tag_22\n      jump\t// in\n    tag_23:\n      dup1\n      iszero\n      tag_24\n      jumpi\n      dup1\n      0x1f\n      lt\n      tag_25\n      jumpi\n      0x0100\n      dup1\n      dup4\n      sload\n      div\n      mul\n      dup4\n      mstore\n      swap2\n      0x20\n      add\n      swap2\n      jump(tag_24)\n    tag_25:\n      dup3\n      add\n      swap2\n      swap1\n      0x00\n      mstore\n      keccak256(0x00, 0x20)\n      swap1\n    tag_26:\n      dup2\n      sload\n      dup2\n      mstore\n      swap1\n      0x01\n      add\n      swap1\n      0x20\n      add\n      dup1\n      dup4\n      gt\n      tag_26\n      jumpi\n      dup3\n      swap1\n      sub\n      0x1f\n      and\n      dup3\n      add\n      swap2\n    tag_24:\n      pop\n      pop\n      pop\n      pop\n      pop\n      swap1\n      pop\n        /* \"contracts/1_Storage.sol\":368:469  function getName(uint8 _num) external view returns(string memory) {... */\n      swap2\n      swap1\n      pop\n      jump\t// out\n        /* \"contracts/1_Storage.sol\":222:260  mapping (uint8 => string) public names */\n    tag_14:\n      mstore(0x20, 0x00)\n      dup1\n      0x00\n      mstore\n      keccak256(0x00, 0x40)\n      0x00\n      swap2\n      pop\n      swap1\n      pop\n      dup1\n      sload\n      tag_27\n      swap1\n      tag_22\n      jump\t// in\n    tag_27:\n      dup1\n      0x1f\n      add\n      0x20\n      dup1\n      swap2\n      div\n      mul\n      0x20\n      add\n      mload(0x40)\n      swap1\n      dup2\n      add\n      0x40\n      mstore\n      dup1\n      swap3\n      swap2\n      swap1\n      dup2\n      dup2\n      mstore\n      0x20\n      add\n      dup3\n      dup1\n      sload\n      tag_28\n      swap1\n      tag_22\n      jump\t// in\n    tag_28:\n      dup1\n      iszero\n      tag_29\n      jumpi\n      dup1\n      0x1f\n      lt\n      tag_30\n      jumpi\n      0x0100\n      dup1\n      dup4\n      sload\n      div\n      mul\n      dup4\n      mstore\n      swap2\n      0x20\n      add\n      swap2\n      jump(tag_29)\n    tag_30:\n      dup3\n      add\n      swap2\n      swap1\n      0x00\n      mstore\n      keccak256(0x00, 0x20)\n      swap1\n    tag_31:\n      dup2\n      sload\n      dup2\n      mstore\n      swap1\n      0x01\n      add\n      swap1\n      0x20\n      add\n      dup1\n      dup4\n      gt\n      tag_31\n      jumpi\n      dup3\n      swap1\n      sub\n      0x1f\n      and\n      dup3\n      add\n      swap2\n    tag_29:\n      pop\n      pop\n      pop\n      pop\n      pop\n      dup2\n      jump\t// out\n        /* \"contracts/1_Storage.sol\":267:362  function storeName(string memory _name, uint8 _num) public {... */\n    tag_19:\n        /* \"contracts/1_Storage.sol\":350:355  _name */\n      dup2\n        /* \"contracts/1_Storage.sol\":336:341  names */\n      0x00\n        /* \"contracts/1_Storage.sol\":336:347  names[_num] */\n      dup1\n        /* \"contracts/1_Storage.sol\":342:346  _num */\n      dup4\n        /* \"contracts/1_Storage.sol\":336:347  names[_num] */\n      0xff\n      and\n      0xff\n      and\n      dup2\n      mstore\n      0x20\n      add\n      swap1\n      dup2\n      mstore\n      0x20\n      add\n      0x00\n      keccak256\n        /* \"contracts/1_Storage.sol\":336:355  names[_num] = _name */\n      swap1\n      dup2\n      tag_33\n      swap2\n      swap1\n      tag_34\n      jump\t// in\n    tag_33:\n      pop\n        /* \"contracts/1_Storage.sol\":267:362  function storeName(string memory _name, uint8 _num) public {... */\n      pop\n      pop\n      jump\t// out\n        /* \"#utility.yul\":7:82   */\n    tag_35:\n        /* \"#utility.yul\":40:46   */\n      0x00\n        /* \"#utility.yul\":73:75   */\n      0x40\n        /* \"#utility.yul\":67:76   */\n      mload\n        /* \"#utility.yul\":57:76   */\n      swap1\n      pop\n        /* \"#utility.yul\":7:82   */\n      swap1\n      jump\t// out\n        /* \"#utility.yul\":88:205   */\n    tag_36:\n        /* \"#utility.yul\":197:198   */\n      0x00\n        /* \"#utility.yul\":194:195   */\n      dup1\n        /* \"#utility.yul\":187:199   */\n      revert\n        /* \"#utility.yul\":211:328   */\n    tag_37:\n        /* \"#utility.yul\":320:321   */\n      0x00\n        /* \"#utility.yul\":317:318   */\n      dup1\n        /* \"#utility.yul\":310:322   */\n      revert\n        /* \"#utility.yul\":334:420   */\n    tag_38:\n        /* \"#utility.yul\":369:376   */\n      0x00\n        /* \"#utility.yul\":409:413   */\n      0xff\n        /* \"#utility.yul\":402:407   */\n      dup3\n        /* \"#utility.yul\":398:414   */\n      and\n        /* \"#utility.yul\":387:414   */\n      swap1\n      pop\n        /* \"#utility.yul\":334:420   */\n      swap2\n      swap1\n      pop\n      jump\t// out\n        /* \"#utility.yul\":426:544   */\n    tag_39:\n        /* \"#utility.yul\":497:519   */\n      tag_78\n        /* \"#utility.yul\":513:518   */\n      dup2\n        /* \"#utility.yul\":497:519   */\n      tag_38\n      jump\t// in\n    tag_78:\n        /* \"#utility.yul\":490:495   */\n      dup2\n        /* \"#utility.yul\":487:520   */\n      eq\n        /* \"#utility.yul\":477:538   */\n      tag_79\n      jumpi\n        /* \"#utility.yul\":534:535   */\n      0x00\n        /* \"#utility.yul\":531:532   */\n      dup1\n        /* \"#utility.yul\":524:536   */\n      revert\n        /* \"#utility.yul\":477:538   */\n    tag_79:\n        /* \"#utility.yul\":426:544   */\n      pop\n      jump\t// out\n        /* \"#utility.yul\":550:685   */\n    tag_40:\n        /* \"#utility.yul\":594:599   */\n      0x00\n        /* \"#utility.yul\":632:638   */\n      dup2\n        /* \"#utility.yul\":619:639   */\n      calldataload\n        /* \"#utility.yul\":610:639   */\n      swap1\n      pop\n        /* \"#utility.yul\":648:679   */\n      tag_81\n        /* \"#utility.yul\":673:678   */\n      dup2\n        /* \"#utility.yul\":648:679   */\n      tag_39\n      jump\t// in\n    tag_81:\n        /* \"#utility.yul\":550:685   */\n      swap3\n      swap2\n      pop\n      pop\n      jump\t// out\n        /* \"#utility.yul\":691:1016   */\n    tag_8:\n        /* \"#utility.yul\":748:754   */\n      0x00\n        /* \"#utility.yul\":797:799   */\n      0x20\n        /* \"#utility.yul\":785:794   */\n      dup3\n        /* \"#utility.yul\":776:783   */\n      dup5\n        /* \"#utility.yul\":772:795   */\n      sub\n        /* \"#utility.yul\":768:800   */\n      slt\n        /* \"#utility.yul\":765:884   */\n      iszero\n      tag_83\n      jumpi\n        /* \"#utility.yul\":803:882   */\n      tag_84\n      tag_36\n      jump\t// in\n    tag_84:\n        /* \"#utility.yul\":765:884   */\n    tag_83:\n        /* \"#utility.yul\":923:924   */\n      0x00\n        /* \"#utility.yul\":948:999   */\n      tag_85\n        /* \"#utility.yul\":991:998   */\n      dup5\n        /* \"#utility.yul\":982:988   */\n      dup3\n        /* \"#utility.yul\":971:980   */\n      dup6\n        /* \"#utility.yul\":967:989   */\n      add\n        /* \"#utility.yul\":948:999   */\n      tag_40\n      jump\t// in\n    tag_85:\n        /* \"#utility.yul\":938:999   */\n      swap2\n      pop\n        /* \"#utility.yul\":894:1009   */\n      pop\n        /* \"#utility.yul\":691:1016   */\n      swap3\n      swap2\n      pop\n      pop\n      jump\t// out\n        /* \"#utility.yul\":1022:1121   */\n    tag_41:\n        /* \"#utility.yul\":1074:1080   */\n      0x00\n        /* \"#utility.yul\":1108:1113   */\n      dup2\n        /* \"#utility.yul\":1102:1114   */\n      mload\n        /* \"#utility.yul\":1092:1114   */\n      swap1\n      pop\n        /* \"#utility.yul\":1022:1121   */\n      swap2\n      swap1\n      pop\n      jump\t// out\n        /* \"#utility.yul\":1127:1296   */\n    tag_42:\n        /* \"#utility.yul\":1211:1222   */\n      0x00\n        /* \"#utility.yul\":1245:1251   */\n      dup3\n        /* \"#utility.yul\":1240:1243   */\n      dup3\n        /* \"#utility.yul\":1233:1252   */\n      mstore\n        /* \"#utility.yul\":1285:1289   */\n      0x20\n        /* \"#utility.yul\":1280:1283   */\n      dup3\n        /* \"#utility.yul\":1276:1290   */\n      add\n        /* \"#utility.yul\":1261:1290   */\n      swap1\n      pop\n        /* \"#utility.yul\":1127:1296   */\n      swap3\n      swap2\n      pop\n      pop\n      jump\t// out\n        /* \"#utility.yul\":1302:1441   */\n    tag_43:\n        /* \"#utility.yul\":1391:1397   */\n      dup3\n        /* \"#utility.yul\":1386:1389   */\n      dup2\n        /* \"#utility.yul\":1381:1384   */\n      dup4\n        /* \"#utility.yul\":1375:1398   */\n      mcopy\n        /* \"#utility.yul\":1432:1433   */\n      0x00\n        /* \"#utility.yul\":1423:1429   */\n      dup4\n        /* \"#utility.yul\":1418:1421   */\n      dup4\n        /* \"#utility.yul\":1414:1430   */\n      add\n        /* \"#utility.yul\":1407:1434   */\n      mstore\n        /* \"#utility.yul\":1302:1441   */\n      pop\n      pop\n      pop\n      jump\t// out\n        /* \"#utility.yul\":1447:1549   */\n    tag_44:\n        /* \"#utility.yul\":1488:1494   */\n      0x00\n        /* \"#utility.yul\":1539:1541   */\n      0x1f\n        /* \"#utility.yul\":1535:1542   */\n      not\n        /* \"#utility.yul\":1530:1532   */\n      0x1f\n        /* \"#utility.yul\":1523:1528   */\n      dup4\n        /* \"#utility.yul\":1519:1533   */\n      add\n        /* \"#utility.yul\":1515:1543   */\n      and\n        /* \"#utility.yul\":1505:1543   */\n      swap1\n      pop\n        /* \"#utility.yul\":1447:1549   */\n      swap2\n      swap1\n      pop\n      jump\t// out\n        /* \"#utility.yul\":1555:1932   */\n    tag_45:\n        /* \"#utility.yul\":1643:1646   */\n      0x00\n        /* \"#utility.yul\":1671:1710   */\n      tag_91\n        /* \"#utility.yul\":1704:1709   */\n      dup3\n        /* \"#utility.yul\":1671:1710   */\n      tag_41\n      jump\t// in\n    tag_91:\n        /* \"#utility.yul\":1726:1797   */\n      tag_92\n        /* \"#utility.yul\":1790:1796   */\n      dup2\n        /* \"#utility.yul\":1785:1788   */\n      dup6\n        /* \"#utility.yul\":1726:1797   */\n      tag_42\n      jump\t// in\n    tag_92:\n        /* \"#utility.yul\":1719:1797   */\n      swap4\n      pop\n        /* \"#utility.yul\":1806:1871   */\n      tag_93\n        /* \"#utility.yul\":1864:1870   */\n      dup2\n        /* \"#utility.yul\":1859:1862   */\n      dup6\n        /* \"#utility.yul\":1852:1856   */\n      0x20\n        /* \"#utility.yul\":1845:1850   */\n      dup7\n        /* \"#utility.yul\":1841:1857   */\n      add\n        /* \"#utility.yul\":1806:1871   */\n      tag_43\n      jump\t// in\n    tag_93:\n        /* \"#utility.yul\":1896:1925   */\n      tag_94\n        /* \"#utility.yul\":1918:1924   */\n      dup2\n        /* \"#utility.yul\":1896:1925   */\n      tag_44\n      jump\t// in\n    tag_94:\n        /* \"#utility.yul\":1891:1894   */\n      dup5\n        /* \"#utility.yul\":1887:1926   */\n      add\n        /* \"#utility.yul\":1880:1926   */\n      swap2\n      pop\n        /* \"#utility.yul\":1647:1932   */\n      pop\n        /* \"#utility.yul\":1555:1932   */\n      swap3\n      swap2\n      pop\n      pop\n      jump\t// out\n        /* \"#utility.yul\":1938:2251   */\n    tag_11:\n        /* \"#utility.yul\":2051:2055   */\n      0x00\n        /* \"#utility.yul\":2089:2091   */\n      0x20\n        /* \"#utility.yul\":2078:2087   */\n      dup3\n        /* \"#utility.yul\":2074:2092   */\n      add\n        /* \"#utility.yul\":2066:2092   */\n      swap1\n      pop\n        /* \"#utility.yul\":2138:2147   */\n      dup2\n        /* \"#utility.yul\":2132:2136   */\n      dup2\n        /* \"#utility.yul\":2128:2148   */\n      sub\n        /* \"#utility.yul\":2124:2125   */\n      0x00\n        /* \"#utility.yul\":2113:2122   */\n      dup4\n        /* \"#utility.yul\":2109:2126   */\n      add\n        /* \"#utility.yul\":2102:2149   */\n      mstore\n        /* \"#utility.yul\":2166:2244   */\n      tag_96\n        /* \"#utility.yul\":2239:2243   */\n      dup2\n        /* \"#utility.yul\":2230:2236   */\n      dup5\n        /* \"#utility.yul\":2166:2244   */\n      tag_45\n      jump\t// in\n    tag_96:\n        /* \"#utility.yul\":2158:2244   */\n      swap1\n      pop\n        /* \"#utility.yul\":1938:2251   */\n      swap3\n      swap2\n      pop\n      pop\n      jump\t// out\n        /* \"#utility.yul\":2257:2374   */\n    tag_46:\n        /* \"#utility.yul\":2366:2367   */\n      0x00\n        /* \"#utility.yul\":2363:2364   */\n      dup1\n        /* \"#utility.yul\":2356:2368   */\n      revert\n        /* \"#utility.yul\":2380:2497   */\n    tag_47:\n        /* \"#utility.yul\":2489:2490   */\n      0x00\n        /* \"#utility.yul\":2486:2487   */\n      dup1\n        /* \"#utility.yul\":2479:2491   */\n      revert\n        /* \"#utility.yul\":2503:2683   */\n    tag_48:\n        /* \"#utility.yul\":2551:2628   */\n      0x4e487b7100000000000000000000000000000000000000000000000000000000\n        /* \"#utility.yul\":2548:2549   */\n      0x00\n        /* \"#utility.yul\":2541:2629   */\n      mstore\n        /* \"#utility.yul\":2648:2652   */\n      0x41\n        /* \"#utility.yul\":2645:2646   */\n      0x04\n        /* \"#utility.yul\":2638:2653   */\n      mstore\n        /* \"#utility.yul\":2672:2676   */\n      0x24\n        /* \"#utility.yul\":2669:2670   */\n      0x00\n        /* \"#utility.yul\":2662:2677   */\n      revert\n        /* \"#utility.yul\":2689:2970   */\n    tag_49:\n        /* \"#utility.yul\":2772:2799   */\n      tag_101\n        /* \"#utility.yul\":2794:2798   */\n      dup3\n        /* \"#utility.yul\":2772:2799   */\n      tag_44\n      jump\t// in\n    tag_101:\n        /* \"#utility.yul\":2764:2770   */\n      dup2\n        /* \"#utility.yul\":2760:2800   */\n      add\n        /* \"#utility.yul\":2902:2908   */\n      dup2\n        /* \"#utility.yul\":2890:2900   */\n      dup2\n        /* \"#utility.yul\":2887:2909   */\n      lt\n        /* \"#utility.yul\":2866:2884   */\n      0xffffffffffffffff\n        /* \"#utility.yul\":2854:2864   */\n      dup3\n        /* \"#utility.yul\":2851:2885   */\n      gt\n        /* \"#utility.yul\":2848:2910   */\n      or\n        /* \"#utility.yul\":2845:2933   */\n      iszero\n      tag_102\n      jumpi\n        /* \"#utility.yul\":2913:2931   */\n      tag_103\n      tag_48\n      jump\t// in\n    tag_103:\n        /* \"#utility.yul\":2845:2933   */\n    tag_102:\n        /* \"#utility.yul\":2953:2963   */\n      dup1\n        /* \"#utility.yul\":2949:2951   */\n      0x40\n        /* \"#utility.yul\":2942:2964   */\n      mstore\n        /* \"#utility.yul\":2732:2970   */\n      pop\n        /* \"#utility.yul\":2689:2970   */\n      pop\n      pop\n      jump\t// out\n        /* \"#utility.yul\":2976:3105   */\n    tag_50:\n        /* \"#utility.yul\":3010:3016   */\n      0x00\n        /* \"#utility.yul\":3037:3057   */\n      tag_105\n      tag_35\n      jump\t// in\n    tag_105:\n        /* \"#utility.yul\":3027:3057   */\n      swap1\n      pop\n        /* \"#utility.yul\":3066:3099   */\n      tag_106\n        /* \"#utility.yul\":3094:3098   */\n      dup3\n        /* \"#utility.yul\":3086:3092   */\n      dup3\n        /* \"#utility.yul\":3066:3099   */\n      tag_49\n      jump\t// in\n    tag_106:\n        /* \"#utility.yul\":2976:3105   */\n      swap2\n      swap1\n      pop\n      jump\t// out\n        /* \"#utility.yul\":3111:3419   */\n    tag_51:\n        /* \"#utility.yul\":3173:3177   */\n      0x00\n        /* \"#utility.yul\":3263:3281   */\n      0xffffffffffffffff\n        /* \"#utility.yul\":3255:3261   */\n      dup3\n        /* \"#utility.yul\":3252:3282   */\n      gt\n        /* \"#utility.yul\":3249:3305   */\n      iszero\n      tag_108\n      jumpi\n        /* \"#utility.yul\":3285:3303   */\n      tag_109\n      tag_48\n      jump\t// in\n    tag_109:\n        /* \"#utility.yul\":3249:3305   */\n    tag_108:\n        /* \"#utility.yul\":3323:3352   */\n      tag_110\n        /* \"#utility.yul\":3345:3351   */\n      dup3\n        /* \"#utility.yul\":3323:3352   */\n      tag_44\n      jump\t// in\n    tag_110:\n        /* \"#utility.yul\":3315:3352   */\n      swap1\n      pop\n        /* \"#utility.yul\":3407:3411   */\n      0x20\n        /* \"#utility.yul\":3401:3405   */\n      dup2\n        /* \"#utility.yul\":3397:3412   */\n      add\n        /* \"#utility.yul\":3389:3412   */\n      swap1\n      pop\n        /* \"#utility.yul\":3111:3419   */\n      swap2\n      swap1\n      pop\n      jump\t// out\n        /* \"#utility.yul\":3425:3573   */\n    tag_52:\n        /* \"#utility.yul\":3523:3529   */\n      dup3\n        /* \"#utility.yul\":3518:3521   */\n      dup2\n        /* \"#utility.yul\":3513:3516   */\n      dup4\n        /* \"#utility.yul\":3500:3530   */\n      calldatacopy\n        /* \"#utility.yul\":3564:3565   */\n      0x00\n        /* \"#utility.yul\":3555:3561   */\n      dup4\n        /* \"#utility.yul\":3550:3553   */\n      dup4\n        /* \"#utility.yul\":3546:3562   */\n      add\n        /* \"#utility.yul\":3539:3566   */\n      mstore\n        /* \"#utility.yul\":3425:3573   */\n      pop\n      pop\n      pop\n      jump\t// out\n        /* \"#utility.yul\":3579:4004   */\n    tag_53:\n        /* \"#utility.yul\":3657:3662   */\n      0x00\n        /* \"#utility.yul\":3682:3748   */\n      tag_113\n        /* \"#utility.yul\":3698:3747   */\n      tag_114\n        /* \"#utility.yul\":3740:3746   */\n      dup5\n        /* \"#utility.yul\":3698:3747   */\n      tag_51\n      jump\t// in\n    tag_114:\n        /* \"#utility.yul\":3682:3748   */\n      tag_50\n      jump\t// in\n    tag_113:\n        /* \"#utility.yul\":3673:3748   */\n      swap1\n      pop\n        /* \"#utility.yul\":3771:3777   */\n      dup3\n        /* \"#utility.yul\":3764:3769   */\n      dup2\n        /* \"#utility.yul\":3757:3778   */\n      mstore\n        /* \"#utility.yul\":3809:3813   */\n      0x20\n        /* \"#utility.yul\":3802:3807   */\n      dup2\n        /* \"#utility.yul\":3798:3814   */\n      add\n        /* \"#utility.yul\":3847:3850   */\n      dup5\n        /* \"#utility.yul\":3838:3844   */\n      dup5\n        /* \"#utility.yul\":3833:3836   */\n      dup5\n        /* \"#utility.yul\":3829:3845   */\n      add\n        /* \"#utility.yul\":3826:3851   */\n      gt\n        /* \"#utility.yul\":3823:3935   */\n      iszero\n      tag_115\n      jumpi\n        /* \"#utility.yul\":3854:3933   */\n      tag_116\n      tag_47\n      jump\t// in\n    tag_116:\n        /* \"#utility.yul\":3823:3935   */\n    tag_115:\n        /* \"#utility.yul\":3944:3998   */\n      tag_117\n        /* \"#utility.yul\":3991:3997   */\n      dup5\n        /* \"#utility.yul\":3986:3989   */\n      dup3\n        /* \"#utility.yul\":3981:3984   */\n      dup6\n        /* \"#utility.yul\":3944:3998   */\n      tag_52\n      jump\t// in\n    tag_117:\n        /* \"#utility.yul\":3663:4004   */\n      pop\n        /* \"#utility.yul\":3579:4004   */\n      swap4\n      swap3\n      pop\n      pop\n      pop\n      jump\t// out\n        /* \"#utility.yul\":4024:4364   */\n    tag_54:\n        /* \"#utility.yul\":4080:4085   */\n      0x00\n        /* \"#utility.yul\":4129:4132   */\n      dup3\n        /* \"#utility.yul\":4122:4126   */\n      0x1f\n        /* \"#utility.yul\":4114:4120   */\n      dup4\n        /* \"#utility.yul\":4110:4127   */\n      add\n        /* \"#utility.yul\":4106:4133   */\n      slt\n        /* \"#utility.yul\":4096:4218   */\n      tag_119\n      jumpi\n        /* \"#utility.yul\":4137:4216   */\n      tag_120\n      tag_46\n      jump\t// in\n    tag_120:\n        /* \"#utility.yul\":4096:4218   */\n    tag_119:\n        /* \"#utility.yul\":4254:4260   */\n      dup2\n        /* \"#utility.yul\":4241:4261   */\n      calldataload\n        /* \"#utility.yul\":4279:4358   */\n      tag_121\n        /* \"#utility.yul\":4354:4357   */\n      dup5\n        /* \"#utility.yul\":4346:4352   */\n      dup3\n        /* \"#utility.yul\":4339:4343   */\n      0x20\n        /* \"#utility.yul\":4331:4337   */\n      dup7\n        /* \"#utility.yul\":4327:4344   */\n      add\n        /* \"#utility.yul\":4279:4358   */\n      tag_53\n      jump\t// in\n    tag_121:\n        /* \"#utility.yul\":4270:4358   */\n      swap2\n      pop\n        /* \"#utility.yul\":4086:4364   */\n      pop\n        /* \"#utility.yul\":4024:4364   */\n      swap3\n      swap2\n      pop\n      pop\n      jump\t// out\n        /* \"#utility.yul\":4370:5020   */\n    tag_18:\n        /* \"#utility.yul\":4446:4452   */\n      0x00\n        /* \"#utility.yul\":4454:4460   */\n      dup1\n        /* \"#utility.yul\":4503:4505   */\n      0x40\n        /* \"#utility.yul\":4491:4500   */\n      dup4\n        /* \"#utility.yul\":4482:4489   */\n      dup6\n        /* \"#utility.yul\":4478:4501   */\n      sub\n        /* \"#utility.yul\":4474:4506   */\n      slt\n        /* \"#utility.yul\":4471:4590   */\n      iszero\n      tag_123\n      jumpi\n        /* \"#utility.yul\":4509:4588   */\n      tag_124\n      tag_36\n      jump\t// in\n    tag_124:\n        /* \"#utility.yul\":4471:4590   */\n    tag_123:\n        /* \"#utility.yul\":4657:4658   */\n      0x00\n        /* \"#utility.yul\":4646:4655   */\n      dup4\n        /* \"#utility.yul\":4642:4659   */\n      add\n        /* \"#utility.yul\":4629:4660   */\n      calldataload\n        /* \"#utility.yul\":4687:4705   */\n      0xffffffffffffffff\n        /* \"#utility.yul\":4679:4685   */\n      dup2\n        /* \"#utility.yul\":4676:4706   */\n      gt\n        /* \"#utility.yul\":4673:4790   */\n      iszero\n      tag_125\n      jumpi\n        /* \"#utility.yul\":4709:4788   */\n      tag_126\n      tag_37\n      jump\t// in\n    tag_126:\n        /* \"#utility.yul\":4673:4790   */\n    tag_125:\n        /* \"#utility.yul\":4814:4877   */\n      tag_127\n        /* \"#utility.yul\":4869:4876   */\n      dup6\n        /* \"#utility.yul\":4860:4866   */\n      dup3\n        /* \"#utility.yul\":4849:4858   */\n      dup7\n        /* \"#utility.yul\":4845:4867   */\n      add\n        /* \"#utility.yul\":4814:4877   */\n      tag_54\n      jump\t// in\n    tag_127:\n        /* \"#utility.yul\":4804:4877   */\n      swap3\n      pop\n        /* \"#utility.yul\":4600:4887   */\n      pop\n        /* \"#utility.yul\":4926:4928   */\n      0x20\n        /* \"#utility.yul\":4952:5003   */\n      tag_128\n        /* \"#utility.yul\":4995:5002   */\n      dup6\n        /* \"#utility.yul\":4986:4992   */\n      dup3\n        /* \"#utility.yul\":4975:4984   */\n      dup7\n        /* \"#utility.yul\":4971:4993   */\n      add\n        /* \"#utility.yul\":4952:5003   */\n      tag_40\n      jump\t// in\n    tag_128:\n        /* \"#utility.yul\":4942:5003   */\n      swap2\n      pop\n        /* \"#utility.yul\":4897:5013   */\n      pop\n        /* \"#utility.yul\":4370:5020   */\n      swap3\n      pop\n      swap3\n      swap1\n      pop\n      jump\t// out\n        /* \"#utility.yul\":5026:5206   */\n    tag_55:\n        /* \"#utility.yul\":5074:5151   */\n      0x4e487b7100000000000000000000000000000000000000000000000000000000\n        /* \"#utility.yul\":5071:5072   */\n      0x00\n        /* \"#utility.yul\":5064:5152   */\n      mstore\n        /* \"#utility.yul\":5171:5175   */\n      0x22\n        /* \"#utility.yul\":5168:5169   */\n      0x04\n        /* \"#utility.yul\":5161:5176   */\n      mstore\n        /* \"#utility.yul\":5195:5199   */\n      0x24\n        /* \"#utility.yul\":5192:5193   */\n      0x00\n        /* \"#utility.yul\":5185:5200   */\n      revert\n        /* \"#utility.yul\":5212:5532   */\n    tag_22:\n        /* \"#utility.yul\":5256:5262   */\n      0x00\n        /* \"#utility.yul\":5293:5294   */\n      0x02\n        /* \"#utility.yul\":5287:5291   */\n      dup3\n        /* \"#utility.yul\":5283:5295   */\n      div\n        /* \"#utility.yul\":5273:5295   */\n      swap1\n      pop\n        /* \"#utility.yul\":5340:5341   */\n      0x01\n        /* \"#utility.yul\":5334:5338   */\n      dup3\n        /* \"#utility.yul\":5330:5342   */\n      and\n        /* \"#utility.yul\":5361:5379   */\n      dup1\n        /* \"#utility.yul\":5351:5432   */\n      tag_131\n      jumpi\n        /* \"#utility.yul\":5417:5421   */\n      0x7f\n        /* \"#utility.yul\":5409:5415   */\n      dup3\n        /* \"#utility.yul\":5405:5422   */\n      and\n        /* \"#utility.yul\":5395:5422   */\n      swap2\n      pop\n        /* \"#utility.yul\":5351:5432   */\n    tag_131:\n        /* \"#utility.yul\":5479:5481   */\n      0x20\n        /* \"#utility.yul\":5471:5477   */\n      dup3\n        /* \"#utility.yul\":5468:5482   */\n      lt\n        /* \"#utility.yul\":5448:5466   */\n      dup2\n        /* \"#utility.yul\":5445:5483   */\n      sub\n        /* \"#utility.yul\":5442:5526   */\n      tag_132\n      jumpi\n        /* \"#utility.yul\":5498:5516   */\n      tag_133\n      tag_55\n      jump\t// in\n    tag_133:\n        /* \"#utility.yul\":5442:5526   */\n    tag_132:\n        /* \"#utility.yul\":5263:5532   */\n      pop\n        /* \"#utility.yul\":5212:5532   */\n      swap2\n      swap1\n      pop\n      jump\t// out\n        /* \"#utility.yul\":5538:5679   */\n    tag_56:\n        /* \"#utility.yul\":5587:5591   */\n      0x00\n        /* \"#utility.yul\":5610:5613   */\n      dup2\n        /* \"#utility.yul\":5602:5613   */\n      swap1\n      pop\n        /* \"#utility.yul\":5633:5636   */\n      dup2\n        /* \"#utility.yul\":5630:5631   */\n      0x00\n        /* \"#utility.yul\":5623:5637   */\n      mstore\n        /* \"#utility.yul\":5667:5671   */\n      0x20\n        /* \"#utility.yul\":5664:5665   */\n      0x00\n        /* \"#utility.yul\":5654:5672   */\n      keccak256\n        /* \"#utility.yul\":5646:5672   */\n      swap1\n      pop\n        /* \"#utility.yul\":5538:5679   */\n      swap2\n      swap1\n      pop\n      jump\t// out\n        /* \"#utility.yul\":5685:5778   */\n    tag_57:\n        /* \"#utility.yul\":5722:5728   */\n      0x00\n        /* \"#utility.yul\":5769:5771   */\n      0x20\n        /* \"#utility.yul\":5764:5766   */\n      0x1f\n        /* \"#utility.yul\":5757:5762   */\n      dup4\n        /* \"#utility.yul\":5753:5767   */\n      add\n        /* \"#utility.yul\":5749:5772   */\n      div\n        /* \"#utility.yul\":5739:5772   */\n      swap1\n      pop\n        /* \"#utility.yul\":5685:5778   */\n      swap2\n      swap1\n      pop\n      jump\t// out\n        /* \"#utility.yul\":5784:5891   */\n    tag_58:\n        /* \"#utility.yul\":5828:5836   */\n      0x00\n        /* \"#utility.yul\":5878:5883   */\n      dup3\n        /* \"#utility.yul\":5872:5876   */\n      dup3\n        /* \"#utility.yul\":5868:5884   */\n      shl\n        /* \"#utility.yul\":5847:5884   */\n      swap1\n      pop\n        /* \"#utility.yul\":5784:5891   */\n      swap3\n      swap2\n      pop\n      pop\n      jump\t// out\n        /* \"#utility.yul\":5897:6290   */\n    tag_59:\n        /* \"#utility.yul\":5966:5972   */\n      0x00\n        /* \"#utility.yul\":6016:6017   */\n      0x08\n        /* \"#utility.yul\":6004:6014   */\n      dup4\n        /* \"#utility.yul\":6000:6018   */\n      mul\n        /* \"#utility.yul\":6039:6136   */\n      tag_138\n        /* \"#utility.yul\":6069:6135   */\n      0xffffffffffffffffffffffffffffffffffffffffffffffffffffffffffffffff\n        /* \"#utility.yul\":6058:6067   */\n      dup3\n        /* \"#utility.yul\":6039:6136   */\n      tag_58\n      jump\t// in\n    tag_138:\n        /* \"#utility.yul\":6157:6196   */\n      tag_139\n        /* \"#utility.yul\":6187:6195   */\n      dup7\n        /* \"#utility.yul\":6176:6185   */\n      dup4\n        /* \"#utility.yul\":6157:6196   */\n      tag_58\n      jump\t// in\n    tag_139:\n        /* \"#utility.yul\":6145:6196   */\n      swap6\n      pop\n        /* \"#utility.yul\":6229:6233   */\n      dup1\n        /* \"#utility.yul\":6225:6234   */\n      not\n        /* \"#utility.yul\":6218:6223   */\n      dup5\n        /* \"#utility.yul\":6214:6235   */\n      and\n        /* \"#utility.yul\":6205:6235   */\n      swap4\n      pop\n        /* \"#utility.yul\":6278:6282   */\n      dup1\n        /* \"#utility.yul\":6268:6276   */\n      dup7\n        /* \"#utility.yul\":6264:6283   */\n      and\n        /* \"#utility.yul\":6257:6262   */\n      dup5\n        /* \"#utility.yul\":6254:6284   */\n      or\n        /* \"#utility.yul\":6244:6284   */\n      swap3\n      pop\n        /* \"#utility.yul\":5973:6290   */\n      pop\n      pop\n        /* \"#utility.yul\":5897:6290   */\n      swap4\n      swap3\n      pop\n      pop\n      pop\n      jump\t// out\n        /* \"#utility.yul\":6296:6373   */\n    tag_60:\n        /* \"#utility.yul\":6333:6340   */\n      0x00\n        /* \"#utility.yul\":6362:6367   */\n      dup2\n        /* \"#utility.yul\":6351:6367   */\n      swap1\n      pop\n        /* \"#utility.yul\":6296:6373   */\n      swap2\n      swap1\n      pop\n      jump\t// out\n        /* \"#utility.yul\":6379:6439   */\n    tag_61:\n        /* \"#utility.yul\":6407:6410   */\n      0x00\n        /* \"#utility.yul\":6428:6433   */\n      dup2\n        /* \"#utility.yul\":6421:6433   */\n      swap1\n      pop\n        /* \"#utility.yul\":6379:6439   */\n      swap2\n      swap1\n      pop\n      jump\t// out\n        /* \"#utility.yul\":6445:6587   */\n    tag_62:\n        /* \"#utility.yul\":6495:6504   */\n      0x00\n        /* \"#utility.yul\":6528:6581   */\n      tag_143\n        /* \"#utility.yul\":6546:6580   */\n      tag_144\n        /* \"#utility.yul\":6555:6579   */\n      tag_145\n        /* \"#utility.yul\":6573:6578   */\n      dup5\n        /* \"#utility.yul\":6555:6579   */\n      tag_60\n      jump\t// in\n    tag_145:\n        /* \"#utility.yul\":6546:6580   */\n      tag_61\n      jump\t// in\n    tag_144:\n        /* \"#utility.yul\":6528:6581   */\n      tag_60\n      jump\t// in\n    tag_143:\n        /* \"#utility.yul\":6515:6581   */\n      swap1\n      pop\n        /* \"#utility.yul\":6445:6587   */\n      swap2\n      swap1\n      pop\n      jump\t// out\n        /* \"#utility.yul\":6593:6668   */\n    tag_63:\n        /* \"#utility.yul\":6636:6639   */\n      0x00\n        /* \"#utility.yul\":6657:6662   */\n      dup2\n        /* \"#utility.yul\":6650:6662   */\n      swap1\n      pop\n        /* \"#utility.yul\":6593:6668   */\n      swap2\n      swap1\n      pop\n      jump\t// out\n        /* \"#utility.yul\":6674:6943   */\n    tag_64:\n        /* \"#utility.yul\":6784:6823   */\n      tag_148\n        /* \"#utility.yul\":6815:6822   */\n      dup4\n        /* \"#utility.yul\":6784:6823   */\n      tag_62\n      jump\t// in\n    tag_148:\n        /* \"#utility.yul\":6845:6936   */\n      tag_149\n        /* \"#utility.yul\":6894:6935   */\n      tag_150\n        /* \"#utility.yul\":6918:6934   */\n      dup3\n        /* \"#utility.yul\":6894:6935   */\n      tag_63\n      jump\t// in\n    tag_150:\n        /* \"#utility.yul\":6886:6892   */\n      dup5\n        /* \"#utility.yul\":6879:6883   */\n      dup5\n        /* \"#utility.yul\":6873:6884   */\n      sload\n        /* \"#utility.yul\":6845:6936   */\n      tag_59\n      jump\t// in\n    tag_149:\n        /* \"#utility.yul\":6839:6843   */\n      dup3\n        /* \"#utility.yul\":6832:6937   */\n      sstore\n        /* \"#utility.yul\":6750:6943   */\n      pop\n        /* \"#utility.yul\":6674:6943   */\n      pop\n      pop\n      pop\n      jump\t// out\n        /* \"#utility.yul\":6949:7022   */\n    tag_65:\n        /* \"#utility.yul\":6994:6997   */\n      0x00\n        /* \"#utility.yul\":6949:7022   */\n      swap1\n      jump\t// out\n        /* \"#utility.yul\":7028:7217   */\n    tag_66:\n        /* \"#utility.yul\":7105:7137   */\n      tag_153\n      tag_65\n      jump\t// in\n    tag_153:\n        /* \"#utility.yul\":7146:7211   */\n      tag_154\n        /* \"#utility.yul\":7204:7210   */\n      dup2\n        /* \"#utility.yul\":7196:7202   */\n      dup5\n        /* \"#utility.yul\":7190:7194   */\n      dup5\n        /* \"#utility.yul\":7146:7211   */\n      tag_64\n      jump\t// in\n    tag_154:\n        /* \"#utility.yul\":7081:7217   */\n      pop\n        /* \"#utility.yul\":7028:7217   */\n      pop\n      pop\n      jump\t// out\n        /* \"#utility.yul\":7223:7409   */\n    tag_67:\n        /* \"#utility.yul\":7283:7403   */\n    tag_156:\n        /* \"#utility.yul\":7300:7303   */\n      dup2\n        /* \"#utility.yul\":7293:7298   */\n      dup2\n        /* \"#utility.yul\":7290:7304   */\n      lt\n        /* \"#utility.yul\":7283:7403   */\n      iszero\n      tag_158\n      jumpi\n        /* \"#utility.yul\":7354:7393   */\n      tag_159\n        /* \"#utility.yul\":7391:7392   */\n      0x00\n        /* \"#utility.yul\":7384:7389   */\n      dup3\n        /* \"#utility.yul\":7354:7393   */\n      tag_66\n      jump\t// in\n    tag_159:\n        /* \"#utility.yul\":7327:7328   */\n      0x01\n        /* \"#utility.yul\":7320:7325   */\n      dup2\n        /* \"#utility.yul\":7316:7329   */\n      add\n        /* \"#utility.yul\":7307:7329   */\n      swap1\n      pop\n        /* \"#utility.yul\":7283:7403   */\n      jump(tag_156)\n    tag_158:\n        /* \"#utility.yul\":7223:7409   */\n      pop\n      pop\n      jump\t// out\n        /* \"#utility.yul\":7415:7958   */\n    tag_68:\n        /* \"#utility.yul\":7516:7518   */\n      0x1f\n        /* \"#utility.yul\":7511:7514   */\n      dup3\n        /* \"#utility.yul\":7508:7519   */\n      gt\n        /* \"#utility.yul\":7505:7951   */\n      iszero\n      tag_161\n      jumpi\n        /* \"#utility.yul\":7550:7588   */\n      tag_162\n        /* \"#utility.yul\":7582:7587   */\n      dup2\n        /* \"#utility.yul\":7550:7588   */\n      tag_56\n      jump\t// in\n    tag_162:\n        /* \"#utility.yul\":7634:7663   */\n      tag_163\n        /* \"#utility.yul\":7652:7662   */\n      dup5\n        /* \"#utility.yul\":7634:7663   */\n      tag_57\n      jump\t// in\n    tag_163:\n        /* \"#utility.yul\":7624:7632   */\n      dup2\n        /* \"#utility.yul\":7620:7664   */\n      add\n        /* \"#utility.yul\":7817:7819   */\n      0x20\n        /* \"#utility.yul\":7805:7815   */\n      dup6\n        /* \"#utility.yul\":7802:7820   */\n      lt\n        /* \"#utility.yul\":7799:7848   */\n      iszero\n      tag_164\n      jumpi\n        /* \"#utility.yul\":7838:7846   */\n      dup2\n        /* \"#utility.yul\":7823:7846   */\n      swap1\n      pop\n        /* \"#utility.yul\":7799:7848   */\n    tag_164:\n        /* \"#utility.yul\":7861:7941   */\n      tag_165\n        /* \"#utility.yul\":7917:7939   */\n      tag_166\n        /* \"#utility.yul\":7935:7938   */\n      dup6\n        /* \"#utility.yul\":7917:7939   */\n      tag_57\n      jump\t// in\n    tag_166:\n        /* \"#utility.yul\":7907:7915   */\n      dup4\n        /* \"#utility.yul\":7903:7940   */\n      add\n        /* \"#utility.yul\":7890:7901   */\n      dup3\n        /* \"#utility.yul\":7861:7941   */\n      tag_67\n      jump\t// in\n    tag_165:\n        /* \"#utility.yul\":7520:7951   */\n      pop\n      pop\n        /* \"#utility.yul\":7505:7951   */\n    tag_161:\n        /* \"#utility.yul\":7415:7958   */\n      pop\n      pop\n      pop\n      jump\t// out\n        /* \"#utility.yul\":7964:8081   */\n    tag_69:\n        /* \"#utility.yul\":8018:8026   */\n      0x00\n        /* \"#utility.yul\":8068:8073   */\n      dup3\n        /* \"#utility.yul\":8062:8066   */\n      dup3\n        /* \"#utility.yul\":8058:8074   */\n      shr\n        /* \"#utility.yul\":8037:8074   */\n      swap1\n      pop\n        /* \"#utility.yul\":7964:8081   */\n      swap3\n      swap2\n      pop\n      pop\n      jump\t// out\n        /* \"#utility.yul\":8087:8256   */\n    tag_70:\n        /* \"#utility.yul\":8131:8137   */\n      0x00\n        /* \"#utility.yul\":8164:8215   */\n      tag_169\n        /* \"#utility.yul\":8212:8213   */\n      0x00\n        /* \"#utility.yul\":8208:8214   */\n      not\n        /* \"#utility.yul\":8200:8205   */\n      dup5\n        /* \"#utility.yul\":8197:8198   */\n      0x08\n        /* \"#utility.yul\":8193:8206   */\n      mul\n        /* \"#utility.yul\":8164:8215   */\n      tag_69\n      jump\t// in\n    tag_169:\n        /* \"#utility.yul\":8160:8216   */\n      not\n        /* \"#utility.yul\":8245:8249   */\n      dup1\n        /* \"#utility.yul\":8239:8243   */\n      dup4\n        /* \"#utility.yul\":8235:8250   */\n      and\n        /* \"#utility.yul\":8225:8250   */\n      swap2\n      pop\n        /* \"#utility.yul\":8138:8256   */\n      pop\n        /* \"#utility.yul\":8087:8256   */\n      swap3\n      swap2\n      pop\n      pop\n      jump\t// out\n        /* \"#utility.yul\":8261:8556   */\n    tag_71:\n        /* \"#utility.yul\":8337:8341   */\n      0x00\n        /* \"#utility.yul\":8483:8512   */\n      tag_171\n        /* \"#utility.yul\":8508:8511   */\n      dup4\n        /* \"#utility.yul\":8502:8506   */\n      dup4\n        /* \"#utility.yul\":8483:8512   */\n      tag_70\n      jump\t// in\n    tag_171:\n        /* \"#utility.yul\":8475:8512   */\n      swap2\n      pop\n        /* \"#utility.yul\":8545:8548   */\n      dup3\n        /* \"#utility.yul\":8542:8543   */\n      0x02\n        /* \"#utility.yul\":8538:8549   */\n      mul\n        /* \"#utility.yul\":8532:8536   */\n      dup3\n        /* \"#utility.yul\":8529:8550   */\n      or\n        /* \"#utility.yul\":8521:8550   */\n      swap1\n      pop\n        /* \"#utility.yul\":8261:8556   */\n      swap3\n      swap2\n      pop\n      pop\n      jump\t// out\n        /* \"#utility.yul\":8561:9956   */\n    tag_34:\n        /* \"#utility.yul\":8678:8715   */\n      tag_173\n        /* \"#utility.yul\":8711:8714   */\n      dup3\n        /* \"#utility.yul\":8678:8715   */\n      tag_41\n      jump\t// in\n    tag_173:\n        /* \"#utility.yul\":8780:8798   */\n      0xffffffffffffffff\n        /* \"#utility.yul\":8772:8778   */\n      dup2\n        /* \"#utility.yul\":8769:8799   */\n      gt\n        /* \"#utility.yul\":8766:8822   */\n      iszero\n      tag_174\n      jumpi\n        /* \"#utility.yul\":8802:8820   */\n      tag_175\n      tag_48\n      jump\t// in\n    tag_175:\n        /* \"#utility.yul\":8766:8822   */\n    tag_174:\n        /* \"#utility.yul\":8846:8884   */\n      tag_176\n        /* \"#utility.yul\":8878:8882   */\n      dup3\n        /* \"#utility.yul\":8872:8883   */\n      sload\n        /* \"#utility.yul\":8846:8884   */\n      tag_22\n      jump\t// in\n    tag_176:\n        /* \"#utility.yul\":8931:8998   */\n      tag_177\n        /* \"#utility.yul\":8991:8997   */\n      dup3\n        /* \"#utility.yul\":8983:8989   */\n      dup3\n        /* \"#utility.yul\":8977:8981   */\n      dup6\n        /* \"#utility.yul\":8931:8998   */\n      tag_68\n      jump\t// in\n    tag_177:\n        /* \"#utility.yul\":9025:9026   */\n      0x00\n        /* \"#utility.yul\":9049:9053   */\n      0x20\n        /* \"#utility.yul\":9036:9053   */\n      swap1\n      pop\n        /* \"#utility.yul\":9081:9083   */\n      0x1f\n        /* \"#utility.yul\":9073:9079   */\n      dup4\n        /* \"#utility.yul\":9070:9084   */\n      gt\n        /* \"#utility.yul\":9098:9099   */\n      0x01\n        /* \"#utility.yul\":9093:9711   */\n      dup2\n      eq\n      tag_179\n      jumpi\n        /* \"#utility.yul\":9755:9756   */\n      0x00\n        /* \"#utility.yul\":9772:9778   */\n      dup5\n        /* \"#utility.yul\":9769:9846   */\n      iszero\n      tag_180\n      jumpi\n        /* \"#utility.yul\":9821:9830   */\n      dup3\n        /* \"#utility.yul\":9816:9819   */\n      dup8\n        /* \"#utility.yul\":9812:9831   */\n      add\n        /* \"#utility.yul\":9806:9832   */\n      mload\n        /* \"#utility.yul\":9797:9832   */\n      swap1\n      pop\n        /* \"#utility.yul\":9769:9846   */\n    tag_180:\n        /* \"#utility.yul\":9872:9939   */\n      tag_181\n        /* \"#utility.yul\":9932:9938   */\n      dup6\n        /* \"#utility.yul\":9925:9930   */\n      dup3\n        /* \"#utility.yul\":9872:9939   */\n      tag_71\n      jump\t// in\n    tag_181:\n        /* \"#utility.yul\":9866:9870   */\n      dup7\n        /* \"#utility.yul\":9859:9940   */\n      sstore\n        /* \"#utility.yul\":9728:9950   */\n      pop\n        /* \"#utility.yul\":9063:9950   */\n      jump(tag_178)\n        /* \"#utility.yul\":9093:9711   */\n    tag_179:\n        /* \"#utility.yul\":9145:9149   */\n      0x1f\n        /* \"#utility.yul\":9141:9150   */\n      not\n        /* \"#utility.yul\":9133:9139   */\n      dup5\n        /* \"#utility.yul\":9129:9151   */\n      and\n        /* \"#utility.yul\":9179:9216   */\n      tag_182\n        /* \"#utility.yul\":9211:9215   */\n      dup7\n        /* \"#utility.yul\":9179:9216   */\n      tag_56\n      jump\t// in\n    tag_182:\n        /* \"#utility.yul\":9238:9239   */\n      0x00\n        /* \"#utility.yul\":9252:9460   */\n    tag_183:\n        /* \"#utility.yul\":9266:9273   */\n      dup3\n        /* \"#utility.yul\":9263:9264   */\n      dup2\n        /* \"#utility.yul\":9260:9274   */\n      lt\n        /* \"#utility.yul\":9252:9460   */\n      iszero\n      tag_185\n      jumpi\n        /* \"#utility.yul\":9345:9354   */\n      dup5\n        /* \"#utility.yul\":9340:9343   */\n      dup10\n        /* \"#utility.yul\":9336:9355   */\n      add\n        /* \"#utility.yul\":9330:9356   */\n      mload\n        /* \"#utility.yul\":9322:9328   */\n      dup3\n        /* \"#utility.yul\":9315:9357   */\n      sstore\n        /* \"#utility.yul\":9396:9397   */\n      0x01\n        /* \"#utility.yul\":9388:9394   */\n      dup3\n        /* \"#utility.yul\":9384:9398   */\n      add\n        /* \"#utility.yul\":9374:9398   */\n      swap2\n      pop\n        /* \"#utility.yul\":9443:9445   */\n      0x20\n        /* \"#utility.yul\":9432:9441   */\n      dup6\n        /* \"#utility.yul\":9428:9446   */\n      add\n        /* \"#utility.yul\":9415:9446   */\n      swap5\n      pop\n        /* \"#utility.yul\":9289:9293   */\n      0x20\n        /* \"#utility.yul\":9286:9287   */\n      dup2\n        /* \"#utility.yul\":9282:9294   */\n      add\n        /* \"#utility.yul\":9277:9294   */\n      swap1\n      pop\n        /* \"#utility.yul\":9252:9460   */\n      jump(tag_183)\n    tag_185:\n        /* \"#utility.yul\":9488:9494   */\n      dup7\n        /* \"#utility.yul\":9479:9486   */\n      dup4\n        /* \"#utility.yul\":9476:9495   */\n      lt\n        /* \"#utility.yul\":9473:9652   */\n      iszero\n      tag_186\n      jumpi\n        /* \"#utility.yul\":9546:9555   */\n      dup5\n        /* \"#utility.yul\":9541:9544   */\n      dup10\n        /* \"#utility.yul\":9537:9556   */\n      add\n        /* \"#utility.yul\":9531:9557   */\n      mload\n        /* \"#utility.yul\":9589:9637   */\n      tag_187\n        /* \"#utility.yul\":9631:9635   */\n      0x1f\n        /* \"#utility.yul\":9623:9629   */\n      dup10\n        /* \"#utility.yul\":9619:9636   */\n      and\n        /* \"#utility.yul\":9608:9617   */\n      dup3\n        /* \"#utility.yul\":9589:9637   */\n      tag_70\n      jump\t// in\n    tag_187:\n        /* \"#utility.yul\":9581:9587   */\n      dup4\n        /* \"#utility.yul\":9574:9638   */\n      sstore\n        /* \"#utility.yul\":9496:9652   */\n      pop\n        /* \"#utility.yul\":9473:9652   */\n    tag_186:\n        /* \"#utility.yul\":9698:9699   */\n      0x01\n        /* \"#utility.yul\":9694:9695   */\n      0x02\n        /* \"#utility.yul\":9686:9692   */\n      dup9\n        /* \"#utility.yul\":9682:9696   */\n      mul\n        /* \"#utility.yul\":9678:9700   */\n      add\n        /* \"#utility.yul\":9672:9676   */\n      dup9\n        /* \"#utility.yul\":9665:9701   */\n      sstore\n        /* \"#utility.yul\":9100:9711   */\n      pop\n      pop\n      pop\n        /* \"#utility.yul\":9063:9950   */\n    tag_178:\n      pop\n        /* \"#utility.yul\":8653:9956   */\n      pop\n      pop\n      pop\n        /* \"#utility.yul\":8561:9956   */\n      pop\n      pop\n      jump\t// out\n\n    auxdata: 0xa2646970667358221220a06ca69a8e184a642d6f06d6126243f41a1c3d6305b584baa24137976f9f308364736f6c634300081a0033\n}\n",
				"bytecode": {
					"linkReferences": {},
					"object": "6080604052348015600e575f80fd5b506107b78061001c5f395ff3fe608060405234801561000f575f80fd5b506004361061003f575f3560e01c8063618b220f146100435780637257a49314610073578063cab48e46146100a3575b5f80fd5b61005d6004803603810190610058919061026e565b6100bf565b60405161006a9190610309565b60405180910390f35b61008d6004803603810190610088919061026e565b610165565b60405161009a9190610309565b60405180910390f35b6100bd60048036038101906100b89190610455565b6101ff565b005b60605f808360ff1660ff1681526020019081526020015f2080546100e2906104dc565b80601f016020809104026020016040519081016040528092919081815260200182805461010e906104dc565b80156101595780601f1061013057610100808354040283529160200191610159565b820191905f5260205f20905b81548152906001019060200180831161013c57829003601f168201915b50505050509050919050565b5f602052805f5260405f205f915090508054610180906104dc565b80601f01602080910402602001604051908101604052809291908181526020018280546101ac906104dc565b80156101f75780601f106101ce576101008083540402835291602001916101f7565b820191905f5260205f20905b8154815290600101906020018083116101da57829003601f168201915b505050505081565b815f808360ff1660ff1681526020019081526020015f20908161022291906106b2565b505050565b5f604051905090565b5f80fd5b5f80fd5b5f60ff82169050919050565b61024d81610238565b8114610257575f80fd5b50565b5f8135905061026881610244565b92915050565b5f6020828403121561028357610282610230565b5b5f6102908482850161025a565b91505092915050565b5f81519050919050565b5f82825260208201905092915050565b8281835e5f83830152505050565b5f601f19601f8301169050919050565b5f6102db82610299565b6102e581856102a3565b93506102f58185602086016102b3565b6102fe816102c1565b840191505092915050565b5f6020820190508181035f83015261032181846102d1565b905092915050565b5f80fd5b5f80fd5b7f4e487b71000000000000000000000000000000000000000000000000000000005f52604160045260245ffd5b610367826102c1565b810181811067ffffffffffffffff8211171561038657610385610331565b5b80604052505050565b5f610398610227565b90506103a4828261035e565b919050565b5f67ffffffffffffffff8211156103c3576103c2610331565b5b6103cc826102c1565b9050602081019050919050565b828183375f83830152505050565b5f6103f96103f4846103a9565b61038f565b9050828152602081018484840111156104155761041461032d565b5b6104208482856103d9565b509392505050565b5f82601f83011261043c5761043b610329565b5b813561044c8482602086016103e7565b91505092915050565b5f806040838503121561046b5761046a610230565b5b5f83013567ffffffffffffffff81111561048857610487610234565b5b61049485828601610428565b92505060206104a58582860161025a565b9150509250929050565b7f4e487b71000000000000000000000000000000000000000000000000000000005f52602260045260245ffd5b5f60028204905060018216806104f357607f821691505b602082108103610506576105056104af565b5b50919050565b5f819050815f5260205f209050919050565b5f6020601f8301049050919050565b5f82821b905092915050565b5f600883026105687fffffffffffffffffffffffffffffffffffffffffffffffffffffffffffffffff8261052d565b610572868361052d565b95508019841693508086168417925050509392505050565b5f819050919050565b5f819050919050565b5f6105b66105b16105ac8461058a565b610593565b61058a565b9050919050565b5f819050919050565b6105cf8361059c565b6105e36105db826105bd565b848454610539565b825550505050565b5f90565b6105f76105eb565b6106028184846105c6565b505050565b5b818110156106255761061a5f826105ef565b600181019050610608565b5050565b601f82111561066a5761063b8161050c565b6106448461051e565b81016020851015610653578190505b61066761065f8561051e565b830182610607565b50505b505050565b5f82821c905092915050565b5f61068a5f198460080261066f565b1980831691505092915050565b5f6106a2838361067b565b9150826002028217905092915050565b6106bb82610299565b67ffffffffffffffff8111156106d4576106d3610331565b5b6106de82546104dc565b6106e9828285610629565b5f60209050601f83116001811461071a575f8415610708578287015190505b6107128582610697565b865550610779565b601f1984166107288661050c565b5f5b8281101561074f5784890151825560018201915060208501945060208101905061072a565b8683101561076c5784890151610768601f89168261067b565b8355505b6001600288020188555050505b50505050505056fea2646970667358221220a06ca69a8e184a642d6f06d6126243f41a1c3d6305b584baa24137976f9f308364736f6c634300081a0033",
					"opcodes": "PUSH1 0x80 PUSH1 0x40 MSTORE CALLVALUE DUP1 ISZERO PUSH1 0xE JUMPI PUSH0 DUP1 REVERT JUMPDEST POP PUSH2 0x7B7 DUP1 PUSH2 0x1C PUSH0 CODECOPY PUSH0 RETURN INVALID PUSH1 0x80 PUSH1 0x40 MSTORE CALLVALUE DUP1 ISZERO PUSH2 0xF JUMPI PUSH0 DUP1 REVERT JUMPDEST POP PUSH1 0x4 CALLDATASIZE LT PUSH2 0x3F JUMPI PUSH0 CALLDATALOAD PUSH1 0xE0 SHR DUP1 PUSH4 0x618B220F EQ PUSH2 0x43 JUMPI DUP1 PUSH4 0x7257A493 EQ PUSH2 0x73 JUMPI DUP1 PUSH4 0xCAB48E46 EQ PUSH2 0xA3 JUMPI JUMPDEST PUSH0 DUP1 REVERT JUMPDEST PUSH2 0x5D PUSH1 0x4 DUP1 CALLDATASIZE SUB DUP2 ADD SWAP1 PUSH2 0x58 SWAP2 SWAP1 PUSH2 0x26E JUMP JUMPDEST PUSH2 0xBF JUMP JUMPDEST PUSH1 0x40 MLOAD PUSH2 0x6A SWAP2 SWAP1 PUSH2 0x309 JUMP JUMPDEST PUSH1 0x40 MLOAD DUP1 SWAP2 SUB SWAP1 RETURN JUMPDEST PUSH2 0x8D PUSH1 0x4 DUP1 CALLDATASIZE SUB DUP2 ADD SWAP1 PUSH2 0x88 SWAP2 SWAP1 PUSH2 0x26E JUMP JUMPDEST PUSH2 0x165 JUMP JUMPDEST PUSH1 0x40 MLOAD PUSH2 0x9A SWAP2 SWAP1 PUSH2 0x309 JUMP JUMPDEST PUSH1 0x40 MLOAD DUP1 SWAP2 SUB SWAP1 RETURN JUMPDEST PUSH2 0xBD PUSH1 0x4 DUP1 CALLDATASIZE SUB DUP2 ADD SWAP1 PUSH2 0xB8 SWAP2 SWAP1 PUSH2 0x455 JUMP JUMPDEST PUSH2 0x1FF JUMP JUMPDEST STOP JUMPDEST PUSH1 0x60 PUSH0 DUP1 DUP4 PUSH1 0xFF AND PUSH1 0xFF AND DUP2 MSTORE PUSH1 0x20 ADD SWAP1 DUP2 MSTORE PUSH1 0x20 ADD PUSH0 KECCAK256 DUP1 SLOAD PUSH2 0xE2 SWAP1 PUSH2 0x4DC JUMP JUMPDEST DUP1 PUSH1 0x1F ADD PUSH1 0x20 DUP1 SWAP2 DIV MUL PUSH1 0x20 ADD PUSH1 0x40 MLOAD SWAP1 DUP2 ADD PUSH1 0x40 MSTORE DUP1 SWAP3 SWAP2 SWAP1 DUP2 DUP2 MSTORE PUSH1 0x20 ADD DUP3 DUP1 SLOAD PUSH2 0x10E SWAP1 PUSH2 0x4DC JUMP JUMPDEST DUP1 ISZERO PUSH2 0x159 JUMPI DUP1 PUSH1 0x1F LT PUSH2 0x130 JUMPI PUSH2 0x100 DUP1 DUP4 SLOAD DIV MUL DUP4 MSTORE SWAP2 PUSH1 0x20 ADD SWAP2 PUSH2 0x159 JUMP JUMPDEST DUP3 ADD SWAP2 SWAP1 PUSH0 MSTORE PUSH1 0x20 PUSH0 KECCAK256 SWAP1 JUMPDEST DUP2 SLOAD DUP2 MSTORE SWAP1 PUSH1 0x1 ADD SWAP1 PUSH1 0x20 ADD DUP1 DUP4 GT PUSH2 0x13C JUMPI DUP3 SWAP1 SUB PUSH1 0x1F AND DUP3 ADD SWAP2 JUMPDEST POP POP POP POP POP SWAP1 POP SWAP2 SWAP1 POP JUMP JUMPDEST PUSH0 PUSH1 0x20 MSTORE DUP1 PUSH0 MSTORE PUSH1 0x40 PUSH0 KECCAK256 PUSH0 SWAP2 POP SWAP1 POP DUP1 SLOAD PUSH2 0x180 SWAP1 PUSH2 0x4DC JUMP JUMPDEST DUP1 PUSH1 0x1F ADD PUSH1 0x20 DUP1 SWAP2 DIV MUL PUSH1 0x20 ADD PUSH1 0x40 MLOAD SWAP1 DUP2 ADD PUSH1 0x40 MSTORE DUP1 SWAP3 SWAP2 SWAP1 DUP2 DUP2 MSTORE PUSH1 0x20 ADD DUP3 DUP1 SLOAD PUSH2 0x1AC SWAP1 PUSH2 0x4DC JUMP JUMPDEST DUP1 ISZERO PUSH2 0x1F7 JUMPI DUP1 PUSH1 0x1F LT PUSH2 0x1CE JUMPI PUSH2 0x100 DUP1 DUP4 SLOAD DIV MUL DUP4 MSTORE SWAP2 PUSH1 0x20 ADD SWAP2 PUSH2 0x1F7 JUMP JUMPDEST DUP3 ADD SWAP2 SWAP1 PUSH0 MSTORE PUSH1 0x20 PUSH0 KECCAK256 SWAP1 JUMPDEST DUP2 SLOAD DUP2 MSTORE SWAP1 PUSH1 0x1 ADD SWAP1 PUSH1 0x20 ADD DUP1 DUP4 GT PUSH2 0x1DA JUMPI DUP3 SWAP1 SUB PUSH1 0x1F AND DUP3 ADD SWAP2 JUMPDEST POP POP POP POP POP DUP2 JUMP JUMPDEST DUP2 PUSH0 DUP1 DUP4 PUSH1 0xFF AND PUSH1 0xFF AND DUP2 MSTORE PUSH1 0x20 ADD SWAP1 DUP2 MSTORE PUSH1 0x20 ADD PUSH0 KECCAK256 SWAP1 DUP2 PUSH2 0x222 SWAP2 SWAP1 PUSH2 0x6B2 JUMP JUMPDEST POP POP POP JUMP JUMPDEST PUSH0 PUSH1 0x40 MLOAD SWAP1 POP SWAP1 JUMP JUMPDEST PUSH0 DUP1 REVERT JUMPDEST PUSH0 DUP1 REVERT JUMPDEST PUSH0 PUSH1 0xFF DUP3 AND SWAP1 POP SWAP2 SWAP1 POP JUMP JUMPDEST PUSH2 0x24D DUP2 PUSH2 0x238 JUMP JUMPDEST DUP2 EQ PUSH2 0x257 JUMPI PUSH0 DUP1 REVERT JUMPDEST POP JUMP JUMPDEST PUSH0 DUP2 CALLDATALOAD SWAP1 POP PUSH2 0x268 DUP2 PUSH2 0x244 JUMP JUMPDEST SWAP3 SWAP2 POP POP JUMP JUMPDEST PUSH0 PUSH1 0x20 DUP3 DUP5 SUB SLT ISZERO PUSH2 0x283 JUMPI PUSH2 0x282 PUSH2 0x230 JUMP JUMPDEST JUMPDEST PUSH0 PUSH2 0x290 DUP5 DUP3 DUP6 ADD PUSH2 0x25A JUMP JUMPDEST SWAP2 POP POP SWAP3 SWAP2 POP POP JUMP JUMPDEST PUSH0 DUP2 MLOAD SWAP1 POP SWAP2 SWAP1 POP JUMP JUMPDEST PUSH0 DUP3 DUP3 MSTORE PUSH1 0x20 DUP3 ADD SWAP1 POP SWAP3 SWAP2 POP POP JUMP JUMPDEST DUP3 DUP2 DUP4 MCOPY PUSH0 DUP4 DUP4 ADD MSTORE POP POP POP JUMP JUMPDEST PUSH0 PUSH1 0x1F NOT PUSH1 0x1F DUP4 ADD AND SWAP1 POP SWAP2 SWAP1 POP JUMP JUMPDEST PUSH0 PUSH2 0x2DB DUP3 PUSH2 0x299 JUMP JUMPDEST PUSH2 0x2E5 DUP2 DUP6 PUSH2 0x2A3 JUMP JUMPDEST SWAP4 POP PUSH2 0x2F5 DUP2 DUP6 PUSH1 0x20 DUP7 ADD PUSH2 0x2B3 JUMP JUMPDEST PUSH2 0x2FE DUP2 PUSH2 0x2C1 JUMP JUMPDEST DUP5 ADD SWAP2 POP POP SWAP3 SWAP2 POP POP JUMP JUMPDEST PUSH0 PUSH1 0x20 DUP3 ADD SWAP1 POP DUP2 DUP2 SUB PUSH0 DUP4 ADD MSTORE PUSH2 0x321 DUP2 DUP5 PUSH2 0x2D1 JUMP JUMPDEST SWAP1 POP SWAP3 SWAP2 POP POP JUMP JUMPDEST PUSH0 DUP1 REVERT JUMPDEST PUSH0 DUP1 REVERT JUMPDEST PUSH32 0x4E487B7100000000000000000000000000000000000000000000000000000000 PUSH0 MSTORE PUSH1 0x41 PUSH1 0x4 MSTORE PUSH1 0x24 PUSH0 REVERT JUMPDEST PUSH2 0x367 DUP3 PUSH2 0x2C1 JUMP JUMPDEST DUP2 ADD DUP2 DUP2 LT PUSH8 0xFFFFFFFFFFFFFFFF DUP3 GT OR ISZERO PUSH2 0x386 JUMPI PUSH2 0x385 PUSH2 0x331 JUMP JUMPDEST JUMPDEST DUP1 PUSH1 0x40 MSTORE POP POP POP JUMP JUMPDEST PUSH0 PUSH2 0x398 PUSH2 0x227 JUMP JUMPDEST SWAP1 POP PUSH2 0x3A4 DUP3 DUP3 PUSH2 0x35E JUMP JUMPDEST SWAP2 SWAP1 POP JUMP JUMPDEST PUSH0 PUSH8 0xFFFFFFFFFFFFFFFF DUP3 GT ISZERO PUSH2 0x3C3 JUMPI PUSH2 0x3C2 PUSH2 0x331 JUMP JUMPDEST JUMPDEST PUSH2 0x3CC DUP3 PUSH2 0x2C1 JUMP JUMPDEST SWAP1 POP PUSH1 0x20 DUP2 ADD SWAP1 POP SWAP2 SWAP1 POP JUMP JUMPDEST DUP3 DUP2 DUP4 CALLDATACOPY PUSH0 DUP4 DUP4 ADD MSTORE POP POP POP JUMP JUMPDEST PUSH0 PUSH2 0x3F9 PUSH2 0x3F4 DUP5 PUSH2 0x3A9 JUMP JUMPDEST PUSH2 0x38F JUMP JUMPDEST SWAP1 POP DUP3 DUP2 MSTORE PUSH1 0x20 DUP2 ADD DUP5 DUP5 DUP5 ADD GT ISZERO PUSH2 0x415 JUMPI PUSH2 0x414 PUSH2 0x32D JUMP JUMPDEST JUMPDEST PUSH2 0x420 DUP5 DUP3 DUP6 PUSH2 0x3D9 JUMP JUMPDEST POP SWAP4 SWAP3 POP POP POP JUMP JUMPDEST PUSH0 DUP3 PUSH1 0x1F DUP4 ADD SLT PUSH2 0x43C JUMPI PUSH2 0x43B PUSH2 0x329 JUMP JUMPDEST JUMPDEST DUP2 CALLDATALOAD PUSH2 0x44C DUP5 DUP3 PUSH1 0x20 DUP7 ADD PUSH2 0x3E7 JUMP JUMPDEST SWAP2 POP POP SWAP3 SWAP2 POP POP JUMP JUMPDEST PUSH0 DUP1 PUSH1 0x40 DUP4 DUP6 SUB SLT ISZERO PUSH2 0x46B JUMPI PUSH2 0x46A PUSH2 0x230 JUMP JUMPDEST JUMPDEST PUSH0 DUP4 ADD CALLDATALOAD PUSH8 0xFFFFFFFFFFFFFFFF DUP2 GT ISZERO PUSH2 0x488 JUMPI PUSH2 0x487 PUSH2 0x234 JUMP JUMPDEST JUMPDEST PUSH2 0x494 DUP6 DUP3 DUP7 ADD PUSH2 0x428 JUMP JUMPDEST SWAP3 POP POP PUSH1 0x20 PUSH2 0x4A5 DUP6 DUP3 DUP7 ADD PUSH2 0x25A JUMP JUMPDEST SWAP2 POP POP SWAP3 POP SWAP3 SWAP1 POP JUMP JUMPDEST PUSH32 0x4E487B7100000000000000000000000000000000000000000000000000000000 PUSH0 MSTORE PUSH1 0x22 PUSH1 0x4 MSTORE PUSH1 0x24 PUSH0 REVERT JUMPDEST PUSH0 PUSH1 0x2 DUP3 DIV SWAP1 POP PUSH1 0x1 DUP3 AND DUP1 PUSH2 0x4F3 JUMPI PUSH1 0x7F DUP3 AND SWAP2 POP JUMPDEST PUSH1 0x20 DUP3 LT DUP2 SUB PUSH2 0x506 JUMPI PUSH2 0x505 PUSH2 0x4AF JUMP JUMPDEST JUMPDEST POP SWAP2 SWAP1 POP JUMP JUMPDEST PUSH0 DUP2 SWAP1 POP DUP2 PUSH0 MSTORE PUSH1 0x20 PUSH0 KECCAK256 SWAP1 POP SWAP2 SWAP1 POP JUMP JUMPDEST PUSH0 PUSH1 0x20 PUSH1 0x1F DUP4 ADD DIV SWAP1 POP SWAP2 SWAP1 POP JUMP JUMPDEST PUSH0 DUP3 DUP3 SHL SWAP1 POP SWAP3 SWAP2 POP POP JUMP JUMPDEST PUSH0 PUSH1 0x8 DUP4 MUL PUSH2 0x568 PUSH32 0xFFFFFFFFFFFFFFFFFFFFFFFFFFFFFFFFFFFFFFFFFFFFFFFFFFFFFFFFFFFFFFFF DUP3 PUSH2 0x52D JUMP JUMPDEST PUSH2 0x572 DUP7 DUP4 PUSH2 0x52D JUMP JUMPDEST SWAP6 POP DUP1 NOT DUP5 AND SWAP4 POP DUP1 DUP7 AND DUP5 OR SWAP3 POP POP POP SWAP4 SWAP3 POP POP POP JUMP JUMPDEST PUSH0 DUP2 SWAP1 POP SWAP2 SWAP1 POP JUMP JUMPDEST PUSH0 DUP2 SWAP1 POP SWAP2 SWAP1 POP JUMP JUMPDEST PUSH0 PUSH2 0x5B6 PUSH2 0x5B1 PUSH2 0x5AC DUP5 PUSH2 0x58A JUMP JUMPDEST PUSH2 0x593 JUMP JUMPDEST PUSH2 0x58A JUMP JUMPDEST SWAP1 POP SWAP2 SWAP1 POP JUMP JUMPDEST PUSH0 DUP2 SWAP1 POP SWAP2 SWAP1 POP JUMP JUMPDEST PUSH2 0x5CF DUP4 PUSH2 0x59C JUMP JUMPDEST PUSH2 0x5E3 PUSH2 0x5DB DUP3 PUSH2 0x5BD JUMP JUMPDEST DUP5 DUP5 SLOAD PUSH2 0x539 JUMP JUMPDEST DUP3 SSTORE POP POP POP POP JUMP JUMPDEST PUSH0 SWAP1 JUMP JUMPDEST PUSH2 0x5F7 PUSH2 0x5EB JUMP JUMPDEST PUSH2 0x602 DUP2 DUP5 DUP5 PUSH2 0x5C6 JUMP JUMPDEST POP POP POP JUMP JUMPDEST JUMPDEST DUP2 DUP2 LT ISZERO PUSH2 0x625 JUMPI PUSH2 0x61A PUSH0 DUP3 PUSH2 0x5EF JUMP JUMPDEST PUSH1 0x1 DUP2 ADD SWAP1 POP PUSH2 0x608 JUMP JUMPDEST POP POP JUMP JUMPDEST PUSH1 0x1F DUP3 GT ISZERO PUSH2 0x66A JUMPI PUSH2 0x63B DUP2 PUSH2 0x50C JUMP JUMPDEST PUSH2 0x644 DUP5 PUSH2 0x51E JUMP JUMPDEST DUP2 ADD PUSH1 0x20 DUP6 LT ISZERO PUSH2 0x653 JUMPI DUP2 SWAP1 POP JUMPDEST PUSH2 0x667 PUSH2 0x65F DUP6 PUSH2 0x51E JUMP JUMPDEST DUP4 ADD DUP3 PUSH2 0x607 JUMP JUMPDEST POP POP JUMPDEST POP POP POP JUMP JUMPDEST PUSH0 DUP3 DUP3 SHR SWAP1 POP SWAP3 SWAP2 POP POP JUMP JUMPDEST PUSH0 PUSH2 0x68A PUSH0 NOT DUP5 PUSH1 0x8 MUL PUSH2 0x66F JUMP JUMPDEST NOT DUP1 DUP4 AND SWAP2 POP POP SWAP3 SWAP2 POP POP JUMP JUMPDEST PUSH0 PUSH2 0x6A2 DUP4 DUP4 PUSH2 0x67B JUMP JUMPDEST SWAP2 POP DUP3 PUSH1 0x2 MUL DUP3 OR SWAP1 POP SWAP3 SWAP2 POP POP JUMP JUMPDEST PUSH2 0x6BB DUP3 PUSH2 0x299 JUMP JUMPDEST PUSH8 0xFFFFFFFFFFFFFFFF DUP2 GT ISZERO PUSH2 0x6D4 JUMPI PUSH2 0x6D3 PUSH2 0x331 JUMP JUMPDEST JUMPDEST PUSH2 0x6DE DUP3 SLOAD PUSH2 0x4DC JUMP JUMPDEST PUSH2 0x6E9 DUP3 DUP3 DUP6 PUSH2 0x629 JUMP JUMPDEST PUSH0 PUSH1 0x20 SWAP1 POP PUSH1 0x1F DUP4 GT PUSH1 0x1 DUP2 EQ PUSH2 0x71A JUMPI PUSH0 DUP5 ISZERO PUSH2 0x708 JUMPI DUP3 DUP8 ADD MLOAD SWAP1 POP JUMPDEST PUSH2 0x712 DUP6 DUP3 PUSH2 0x697 JUMP JUMPDEST DUP7 SSTORE POP PUSH2 0x779 JUMP JUMPDEST PUSH1 0x1F NOT DUP5 AND PUSH2 0x728 DUP7 PUSH2 0x50C JUMP JUMPDEST PUSH0 JUMPDEST DUP3 DUP2 LT ISZERO PUSH2 0x74F JUMPI DUP5 DUP10 ADD MLOAD DUP3 SSTORE PUSH1 0x1 DUP3 ADD SWAP2 POP PUSH1 0x20 DUP6 ADD SWAP5 POP PUSH1 0x20 DUP2 ADD SWAP1 POP PUSH2 0x72A JUMP JUMPDEST DUP7 DUP4 LT ISZERO PUSH2 0x76C JUMPI DUP5 DUP10 ADD MLOAD PUSH2 0x768 PUSH1 0x1F DUP10 AND DUP3 PUSH2 0x67B JUMP JUMPDEST DUP4 SSTORE POP JUMPDEST PUSH1 0x1 PUSH1 0x2 DUP9 MUL ADD DUP9 SSTORE POP POP POP JUMPDEST POP POP POP POP POP POP JUMP INVALID LOG2 PUSH5 0x6970667358 0x22 SLT KECCAK256 LOG0 PUSH13 0xA69A8E184A642D6F06D6126243 DELEGATECALL BYTE SHR RETURNDATASIZE PUSH4 0x5B584BA LOG2 COINBASE CALLDATACOPY SWAP8 PUSH16 0x9F308364736F6C634300081A00330000 "
				},
				"gasEstimates": {
					"creation": {
						"codeDepositCost": "395000",
						"executionCost": "428",
						"totalCost": "395428"
					},
					"external": {
						"getName(uint8)": "infinite",
						"names(uint8)": "infinite",
						"storeName(string,uint8)": "infinite"
					}
				},
				"methodIdentifiers": {
					"getName(uint8)": "618b220f",
					"names(uint8)": "7257a493",
					"storeName(string,uint8)": "cab48e46"
				}
			},
			"storageLayout": {
				"storage": [
					{
						"astId": 6,
						"contract": "contracts/1_Storage.sol:Storage",
						"label": "names",
						"offset": 0,
						"slot": "0",
						"type": "t_mapping(t_uint8,t_string_storage)"
					}
				],
				"types": {
					"t_mapping(t_uint8,t_string_storage)": {
						"encoding": "mapping",
						"key": "t_uint8",
						"label": "mapping(uint8 => string)",
						"numberOfBytes": "32",
						"value": "t_string_storage"
					},
					"t_string_storage": {
						"encoding": "bytes",
						"label": "string",
						"numberOfBytes": "32"
					},
					"t_uint8": {
						"encoding": "inplace",
						"label": "uint8",
						"numberOfBytes": "1"
					}
				}
			},
			"userdoc": {
				"kind": "user",
				"methods": {},
				"version": 1
			}
		}
	}
}